:020000040000FA
:100400008231092A8231D12A8231CC2209008231FB
:10041000B82AC430F6008230F700803082319B2247
:1004200082312600A1007708A000C630A2008230E9
:10043000A30026002008A4002108A500FF30A00783
:10044000031CA103250824040319862A043022076B
:10045000A400A501A50D2308A5072408F60025087A
:10046000F700803082319B2282312600A700770876
:10047000A6002208F6002308F700803082319B2274
:1004800082312600A900A5007708A400A800023048
:100490002207A400A501A50D2308A5072408F6003E
:1004A0002508F700803082319B2282312600A5008A
:1004B000AB007708AA00A40026002608AA00270897
:1004C000AB00FF30A607031CA7032B082A0403195F
:1004D000802A2808F6002908F70080308231892216
:1004E00082312600AA0024088400250885002A08F5
:1004F0008000A80A0319A90AA40A0319A50A5C2AFC
:1005000006302600A2070318A30A192A8231072AF7
:100510000800003A0319902A803A0319962A0034F9
:1005200076088400770885000008080077088A00AC
:10053000760882000800003A0319A32A803A0319BA
:10054000AB2AF70100347608840077088500120092
:10055000F7000008080082319622F500F60FF70335
:10056000F70A82319622F4007508F7007408080033
:1005700021008C123130200098002100111420003D
:100580000B178B17C22A080001340034D23402340E
:100590002C340334013400342000111020308C0638
:0605A00008000A340034DB
:00000001FF
